:040000008A15E12B51
:10000800FF00030E83018316DB000A08DA008A0169
:1000180070088312AF007108AE007208AD00730853
:10002800AC007408AB007508AA007608A900770828
:10003800A8007808A7007908A6007A08A5007B0818
:10004800A4007C08A3007D08A2008B1C3028013086
:100058008316BB000030BC000B1C0C298312061E43
:10006800572800305F06031D3B2800305E06031941
:10007800572801308316BD000030BE008312861455
:100088000430FC003D30FD00FD0B4828FC0B4828DF
:100098000000000086101730FC00B930FD00FD0B91
:1000A8005328FC0B5328861E9B28003083163E06D7
:1000B800031D602801303D06031D9B288030F00099
:1000C800803083125F067002031D6C285E08003CB6
:1000D800031872280130DE02031CDF038614C130C6
:1000E800FD00FD0B75280000000086101A30FC008A
:1000F8003630FD00FD0B7E28FC0B7E280000013009
:10010800EC000030ED008316BD01BE018312871498
:100118000630FB001330FC00AD30FD00FD0B9228CB
:10012800FC0B9228FB0B922800000000871083121A
:10013800061FC328003083163C06031DA52801307E
:100148003B06031DC328831206150430FC003D300E
:10015800FD00FD0BAD28FC0BAD28000000000611CA
:100168001730FC00B930FD00FD0BB828FC0BB8288F
:100178000130EE000030EF00861BC3288B16831277
:10018800861F0B2900306F06031DCC2801306E0630
:10019800031D0B2980305F06F00080307002031DBC
:1001A800D72809305E020318DC28DE0A0319DF0AA3
:1001B8008B108316BB01BC010B100B118B12831221
:1001C8000615C130FD00FD0BE728000000000611F0
:1001D8001A30FC003630FD00FD0BF028FC0BF0282F
:1001E800000007150630FB001330FC00AD30FD00A1
:1001F800FD0BFC28FC0BFC28FB0BFC280000000076
:1002080007110130EA000030EB00EE01EF010B109E
:100218000B1D312901308316D802031CD903003085
:100228005906031D192900305806031D30292030AE
:1002380083120317910003309200E83093000330D3
:1002480094008A15BA228A11993083160313D800AC
:10025800D901831281018B120B1183122F08F00030
:100268002E08F1002D08F2002C08F3002B08F400EA
:100278002A08F5002908F6002808F7002708F800DA
:100288002608F9002508FA002408FB002308FC00CA
:100298002208FD0083165A088A005B0E8300FF0EB1
:0402A8007F0E0900BC
:0802AC00FA1FF21300300800F4
:0402B400000008003E
:0E02B800F201F101F001F801F301003008003D
:1002C600103083120313FD00FD0B672900000800A0
:1002D6007B15FB1F75290130F300F201F101F001D6
:0802E600FA0DF20CFF300800D4
:1002EE00083083120313FC002330FD00FD0B7D2923
:0602FE00FC0B7D29080045
:10030400A0017208031D97297108F2007008F1001A
:10031400F001A0157208031D97297108F200F1017C
:10032400A011201672080319A5292008F302031D41
:10033400031CA9290310F21BAD29F00DF10DF20DD8
:10034400F30B9D29A9290130FC005C21B02902305E
:0E035400FC006B21B0290430FC00562108008B
:06036200FB15FF3008004E
:1003680083120313F801F9011030FC00710DF80D28
:10037800F90D7408F8027508031C750FF9020318C3
:10038800CC297408F80775080318750FF9070310C6
:0A039800F00DF10DFC0BBA2908006E
:1003A20083120317901BD82903138811DA29031328
:1003B20088150317101BE02903130811E229031300
:1003C20008150317901AE82903138810EA29031362
:1003D20088140317101AF02903130810F2290313C3
:1003E200081483165718F82983120816FA2983125B
:1003F200081288165A21881203179019032A031328
:100402008811052A03138815031710190B2A0313E1
:1004120008110D2A0313081503179018132A031342
:100422008810152A03138814031710181B2A0313A4
:1004320008101D2A0313081483165718232A83123F
:100442000816252A8312081288165A218812831642
:0C045200571C2D2A77212E2A6321080058
:10045E00FB14FB1F392AFF30F300F200F100F0000D
:08046E00FA0DF20CFF3008004A
:0E047600073083120313FD00FD0B3F2A080020
:1004840083120313FB017308031D77080319992AC8
:1004940072087606FA007708F3077E30031C562AA2
:1004A400F30203189C2A592AF302031C9F2A720898
:1004B400F8007108FC007008FD00F817F617031027
:1004C400F201F101F0011830A0007D1C732A7408B8
:1004D400F00775080318750FF10776080318760FEF
:1004E400F207F20CF10CF00CF80CFC0CFD0C0310F0
:1004F400A00B672AF21B832AF80DF00DF10DF20D03
:10050400F3037B1B701C952AF81F952AF00A031924
:10051400F10A0319F20A031D952AF20CF10CF00CEE
:10052400F30A03199C2AFA1FF2130030A12A01309E
:100534005C21A12A02302F22A12A04306B21000061
:020544000800AD
:10054600831203137408003A031DBE2A7508003A85
:10055600031DBE2A7608003A031DBE2A7708003A14
:10056600031DBE2AFF30F000FF30F1007F30F2009D
:10057600FF30F300592B83120313770803194D2B11
:1005860073080319502B720876068039FA00F217A1
:10059600F617A0017208F8007108FC007008FD004B
:1005A6007408FD027508031C750FFC027608031C0F
:1005B600760FF802F801FC01FD01031CE92A03107D
:1005C600F20CF10CF00CF80C0130A0007708F302E5
:1005D600031CF32A7E302007F3070318532BF82A4F
:1005E6007E302007F307031C562B1830FA07FD0D43
:1005F600FC0DF80DF00DF10DF20DA00D7408F002D2
:100606007508031C750FF1027608031C760FF202BB
:10061600760DA004201C112B7D141C2B7408F007EA
:1006260075080318750FF10776080318760AF2079E
:100636007D10FA031F307A05031DFA2A7B1B7D1CE9
:10064600432B0310F00DF10DF20DA00D7408F0020E
:100656007508031C750FF1027608031C760FF2026B
:10066600760D20040139FD070318FC0A0319F80A60
:10067600031D432BF80CFC0CFD0CF30A0319532B3A
:10068600FA1FF8137808F2007C08F1007D08F000E4
:100696000030582B0130B121582B02305C21582BE9
:0E06A60004302F22582B08306B210000080072
:1006B400831203139F01C0309F044A09F00070089D
:1006C40083169F051F179F176B08F000F00D70101D
:1006D400F00D7010F00D7010700883129F041F1439
:1006E4003B221F151F1D782B0000742B1F101E08A2
:1006F400F100F00183161E08F0040030F104080034
:1007040083120313FD01F801700803190034740601
:10071400FA00FA1BFD09FB01F41F922BF409F40AF9
:10072400F01F962BF009F00A70087404FA00FA1B03
:10073400BA2B7408F802F00D700DF80D7408F80760
:10074400F00D0630FC00700DF80D74087018F802F6
:10075400701CF807F00DFC0BA52B701CF8077B1818
:10076400C82BFD1F0034F009F00AF809F80A003418
:10077400F41FC52BF01BC22B7008F800F001B32B3B
:10078400F001F00A0034F009FB0A9B2BF80A740804
:100794007802031DB32BF801F00AF01FB32BFF34CA
:0207A40008004B
:1007A6008316031357106B08831203179000D12189
:0607B60083165714080031
:1007BC00831203137008F8007108F000F101F201C4
:1007CC00F301FB01FC019630F300FA017008F10013
:0C07DC007808F000F801F201822108000A
:1007E800831603136B08F2007208F100F20A6C0812
:1007F800F000EC0A700884000008F000710884001A
:100808007008800071088400000803190C2CF82B6C
:060818006B08F00008006F
:10081E0083160313EE0105306E0203181D2C6E08AD
:10082E006D07840020308000EE0A122C6E086D07D2
:10083E0084008001EE036E086D07EF000A30F400AD
:10084E00F5016B08F0006C08F100B4217808F00097
:10085E007908F1003030F00783166F0884007008B5
:10086E0080000A30F400F5016B08F0006C08F1000E
:10087E00B42170088316EB007108EC00003071068D
:10088E00031D4B2C00307006031D4E2C502CEE0316
:04089E00222C080000
:1008A20083120313FA017308031D7A147708031DD8
:1008B200FA147A0803199D2C033A0319682C7A1842
:1008C200652CF61F9B2C992CF21F992C9B2C7208DD
:1008D2008039FA00F21376088039F6137A06031982
:1008E200762C7A080319992C9B2C7708730203192A
:1008F2007D2C031C912C952C760872020319842CF2
:10090200031C912C952C7508710203198B2C031C66
:10091200912C952C7408700203199D2C0318952CA8
:10092200FA0803199B2C992CFA080319992C9B2C71
:10093200031408000310080003140315080008003C
:10094200B32C803083160313DE00C62CC030DE00C9
:10095200C62C9430DE00C62CD430DE00C62C80308B
:10096200DE00C62C831603135E08013A0319A22C7B
:100972005E08023A0319A72C5E08033A0319AA2C4F
:100982005E08043A0319AD2CB02C5F03F0005E0838
:10099200F0077008DE007008831203179000D1215F
:1009A20083165710E10161086007840000080319EB
:1009B200E22C6108600784000008EB00D323E10AFF
:0609C200D42C57140800BC
:1009C800831603178C1CEA2C0000E42C03135E0822
:1009D800831203178D00831603135F08831203170E
:1009E8008C0083168C130C150B08F0008B135530F4
:1009F8008D00AA308D008C14F01B042D8B13052D4F
:060A08008B170C11080021
:100A0E00831603135E08831203178D0083168C134F
:0A0A1E000C1483120C08F00008000D
:100A280083160313E301E4015E08E5005F08E600AE
:100A380080305F06F00080307002031D252D0030E5
:100A48005E020318332D0130E3000030E4005E0835
:100A5800003CE5005F08031C013EE601E60265086C
:100A6800EB006608EC006008ED000F240630E1009A
:100A78000030E2006208003C031D442D6108003C80
:100A880003185F2D61086007F20001306102F00071
:100A98000030031C013E6202F10070086007840008
:100AA8000008F00072088400700880000130E1023C
:100AB800031CE2033E2D6008840020308000630898
:100AC800640403197D2DE101E201610860078400D7
:100AD8000008203A031D742DE10A0319E20A692D62
:100AE8000130E102031CE2036108600784002D3035
:040AF8008000080072
:100AFC0083160313E901EA015E08E5005F08E600CE
:100B0C006008E7006108E8006808FF3A031D982DAB
:100B1C006708FF3A031D982D6608FF3A031D982DB0
:100B2C006508FF3A031DA22D6208EB005130EC0062
:100B3C00F4230330F000832F0130E300E71FB12DC5
:100B4C0080306706F0007008E700E30A6208840052
:100B5C002D308000E20A0030F0006806031DC02D25
:100B6C0070086706031DC02D70086606031DC02D96
:100B7C006508003A031DC92D6208EB004F30EC00EC
:100B8C00F423F001832F6808FF3A031DD72D670863
:100B9C00003A031DD72D6608003A031DD72D6508B2
:100BAC00003A031DE12D6208EB004B30EC00F423FE
:100BBC006308F000832F0030F4000030F5000030A3
:100BCC00F6007F30F7006508F0006608F100670852
:100BDC00F2006808F3005124013003180030F000D3
:100BEC0070080319162E83166508F0006608F100CC
:100BFC006708F2006808F3000030F4000030F500DC
:100C0C002030F6008230F700422270088316E5008F
:100C1C007108E6007208E7007308E800EA03E12DAA
:100C2C0083160030F4000030F5002030F6008230DE
:100C3C00F7006508F0006608F1006708F200680824
:100C4C00F30051240130031C0030F000700803192C
:100C5C004C2E83166508F0006608F1006708F20058
:100C6C006808F300CD30F400CC30F5004C30F600C1
:100C7C007B30F700422270088316E5007108E6000D
:100C8C007208E7007308E800EA0A162E8316FF3094
:100C9C006505F800FF306605F9007F306705FA003E
:100CAC0000306805FB007808F4007908F5007A0834
:100CBC00F6007B08F700F40DF50DF60DF70D74102A
:100CCC0000306505F00000306605F1000030670566
:100CDC00F200FF306805F3007008E5007108E600CB
:100CEC007208E7007308E80074086504F0007508E2
:100CFC006604F10076086704F20077086804F300D4
:100D0C007008E5007108E6007208E7007308E80057
:100D1C007F306802F0007008E4000130E8007008D1
:100D2C00F4006508F0006608F1006708F200680836
:100D3C00F30074080319A92EF00DF10DF20DF30D4B
:100D4C007010FF3EA02E7008E5007108E6007208D6
:100D5C00E7007308E8006808303EF0006208840081
:100D6C0070088000E20A80306A06F0008030013A98
:100D7C007002031CCA2E8030063AF00080306A06DE
:100D8C007002031CCA2ED12E620884002E30800003
:100D9C00E20A0130E9000630E4006408003A031965
:100DAC002F2FE8016508F0006608F1006708F200D3
:100DBC006808F300F00DF10DF20DF30D7010F00D4D
:100DCC00F10DF20DF30D70106508F00766080318AD
:100DDC00660FF10767080318670FF2076808031816
:100DEC00680FF3077008E5007108E6007208E70069
:100DFC007308E8006508F0006608F1006708F20067
:100E0C006808F300F00DF10DF20DF30D7010700881
:100E1C00E5007108E6007208E7007308E80068084E
:100E2C00303EF0006208840070088000E20A690815
:100E3C00003A031D2D2FEA036A08003A031D2D2FDB
:100E4C00620884002E308000E20A0130E900E403DD
:100E5C00D32EFF30620784000008303A031D382F70
:100E6C00E2032F2FFF306207840000082E3A031D87
:100E7C00402FE2036A08003A03197F2F62088400AE
:100E8C0065308000E20A80306A06F0008030003A5B
:100E9C0070020318592F620884002D308000E20A7A
:100EAC006A08003CEA006A08E4008030093AF00065
:100EBC0080306A0670020318702F0A30F400640840
:100ECC00F00082233030F00783166208840070082B
:100EDC008000E20A0A30F4006408F00082237808EB
:100EEC00F0003030F0078316620884007008800030
:0C0EFC00E20A620884008001F001080096
:0E0F08008316031347088A004608820008007B
:100F160083160313EB015A23DE2370088316CF00D2
:100F26007108D0007208D1007308D2000030F400B6
:100F36000030F5002030F6008130F7004222003004
:100F4600F400C030F5007F30F6008830F700A322A9
:100F560070088316CF007108D0007208D10073089C
:100F6600D2000030F4000030F5004830F60085303D
:100F7600F700422270088316CF007108D00072086D
:080F8600D1007308D20008003D
:100F8E00831203179D039D031D08003C0318D42FE5
:100F9E009D03000000000000CB2F000000000000A9
:060FAE0000000000080035
:100FB400A03083120313F0000F30F100F201F301AB
:020FC400080023
:100FC60084278A110A128000840AC60A0319C70AEE
:080FD600F003031DE32F0800E6
:1010000083120313FB01FA01F901F801A101730D29
:10101000F80D7408F8027508031C750FF9027608BC
:10102000031C760FFA027708031C770FFB020001FE
:10103000031C0130A102F30D0730FC00730DF80D05
:10104000F90DFA0DFB0DA10D7408731C3928F80277
:101050007508031C750FF9027608031C760FFA0257
:101060007708031C770FFB020001031C0130A1026B
:101070004A28F80775080318750FF907760803184A
:10108000760FFA0777080318770FFB07000103189C
:101090000130A107F30DFC0B1E28720DF80DF90DA0
:1010A000FA0DFB0DA10D7408731C6828F802750871
:1010B000031C750FF9027608031C760FFA027708F5
:1010C000031C770FFB020001031C0130A1027928E9
:1010D000F80775080318750FF90776080318760FD7
:1010E000FA0777080318770FFB0700010318013090
:1010F000A107F20D0730FC00720DF80DF90DFA0D85
:10110000FB0DA10D7408721C9728F8027508031CCA
:10111000750FF9027608031C760FFA027708031C94
:10112000770FFB020001031C0130A102A828F80779
:1011300075080318750FF90776080318760FFA0774
:1011400077080318770FFB07000103180130A10788
:10115000F20DFC0B7C28710DF80DF90DFA0DFB0D4D
:10116000A10D7408721CC628F8027508031C750FBF
:10117000F9027608031C760FFA027708031C770F32
:10118000FB020001031C0130A102D728F8077508F3
:101190000318750FF90776080318760FFA07770812
:1011A0000318770FFB07000103180130A107F10DA9
:1011B0000730FC00710DF80DF90DFA0DFB0DA10DB6
:1011C0007408711CF528F8027508031C750FF902E4
:1011D0007608031C760FFA027708031C770FFB02D0
:1011E0000001031C0130A1020629F8077508031845
:1011F000750FF90776080318760FFA0777080318B2
:10120000770FFB07000103180130A107F10DFC0B5C
:10121000DA28700DF80DF90DFA0DFB0DA10D74080B
:10122000711C2429F8027508031C750FF902760851
:10123000031C760FFA027708031C770FFB020001EC
:10124000031C0130A1023529F80775080318750F32
:10125000F90776080318760FFA0777080318770F4F
:10126000FB07000103180130A107F00D0730FC0057
:10127000700DF80DF90DFA0DFB0DA10D7408701C21
:101280005329F8027508031C750FF9027608031C30
:10129000760FFA027708031C770FFB020001031C8C
:1012A0000130A1026429F80775080318750FF907C2
:1012B00076080318760FFA0777080318770FFB07ED
:1012C000000103180130A107F00DFC0B382970183C
:1012D00077297408F80775080318750FF907760859
:1012E0000318760FFA0777080318770FFB07080033
:1012F000831203132230FC00F801F901FA01FB010B
:10130000FC030319AE290310FB0CFA0CF90CF80CC2
:10131000F30CF20CF10CF00C031C8029FC030319F4
:10132000A0297408F80775080318750FF9077608DF
:101330000318760FFA0777080318770FFB0784293D
:101340007408F80775080318750FF907760803186D
:0E135000760FFA0777080318770FFB070800DF
:10135E00323083160313DE005C08DF008A11E424AA
:10136E008A150130831290008A11D1218A153230EC
:10137E008316DE008A1107258A157008831603135B
:10138E00DE00DF01BF30E0008A1114258A1501301E
:10139E00DE000130DF00BF30E0008A11A1248A1583
:1013AE000230DE000130DF003030E0008A11A1246F
:1013BE008A150630FB001330FC00AD30FD00FD0B2E
:1013CE00E629FC0BE629FB0BE629000000000130A4
:0E13DE008312031790008A11D1218A1508008E
:1013EC00831603138812081208108810081188112C
:1013FC0083128812081288110811881008108A119B
:10140C0077218A158A1177218A158A1177218A15F5
:10141C008814081488168A115A218A1588128A1180
:10142C0077218A1588168A115A218A1588128A11F1
:10143C0077218A1588168A115A218A1588128A11E1
:10144C0077218A15081088168A115A218A15881254
:10145C008A1177218A1588168A115A218A158812C1
:10146C008810881588168A115A218A1588128A11B3
:10147C0077218A158811081488168A115A218A1521
:10148C008812081088168A115A218A1588128A1116
:10149C0077218A1588168A115A218A158812081400
:1014AC0088168A115A218A1588128A1177218A1571
:1014BC00081088168A115A218A1588128815081561
:1014CC008814081488168A115A218A1588128A11D0
:0A14DC0077218A15831657140800C3
:1014E6008A118B278A154F08DE005008DF00510845
:1014F600E0005208E100C830E2008A117E258A1514
:101506000130DE000130DF003D30E0008A11A12409
:101516008A150230DE000A30DF00C830E0008A118A
:10152600A1248A15DF30EB008A11D3238A154330B4
:10153600EB008A11D3238A152030EB008A11D323BE
:101546008A150630FB001330FC00AD30FD00FD0BA4
:10155600AA2AFC0BAA2AFB0BAA2A000000000130CB
:0E1566008312031790008A11D1218A15080004
:101574008A11DA278A15E830F4000330F500F60101
:10158400F701782170080317990071089A0072080E
:101594009B0073089C001108F4001208F500F60182
:1015A400F701002070080317990071089A00720867
:1015B4009B0073089C007008F5007108F60072081F
:1015C400F7007308F800F80CF70CF60CF50CF81398
:1015D400F80CF70CF60CF50CF8137508F000760807
:1015E400F1007708F2007808F300F30CF20CF10C28
:1015F400F00CF31370089500710896008A11DA272D
:101604008A1503171308F4001408F500F601F7010E
:10161400782103171508F9001608FA00FB01FC01EC
:101624000330F8007908F4007A08F5007B08F60026
:101634007C08F70078080319262BF40DF50DF60D38
:10164400F70D7410FF3E1D2B00207008031799003E
:1016540071089A0072089B0073089C000A30F40019
:101664000030F5001508F0001608F1008A11B421C5
:101674008A157008031795007108960000307102EE
:10168400031D462B033070020318492BAC2B831621
:10169400031353088400831203171C08003C031D22
:1016A4005D2B1B08003C031D5D2B1A08003C031D29
:1016B4005D2B1908003C0318A82B83160313440858
:1016C400800483120317160803197A2B97019801D3
:1016D40000301802031D702B1608170203187A2B0A
:1016E4009D018A11C7278A15970A0319980A6A2B3C
:1016F40015089D008A11C7278A1583160313450808
:10170400800583120317160803199A2B9701980171
:1017140000301802031D902B1608170203189A2B89
:101724009D018A11C7278A15970A0319980A8A2BDB
:1017340015089D008A11C7278A1501309902031CD8
:101744009A02031C9B02031C9C024D2B8316031359
:06175400450880050800B5
:10175A00FF3083160313D400FF30D500FF30D600C4
:10176A00FF3083129F01C0309F044A09F0007008BD
:0E177A0083169F051F179F1783121F14080068
:10178800831603135C08D3005D08F1000130F000F4
:1017980071080319D32BF00D7010FF3ECD2B700884
:1017A800C400F0097008C50080305C078400700828
:0A17B8008005841370088005080006
:1017C2001825F621AD23F130831686008710071104
:1017D20007100514880187150712831207128B1749
:1017E2008B150B16831601178112811101158114B5
:1017F20001148312810199308316D800D901831212
:101802008710071107308316DC00DD01C4230C307A
:101812008312031790008A11D1218A150130831691
:10182200DE000630DF006030E0008A11A1248A1554
:101832000630FB001330FC00AD30FD00FD0B1F2C09
:10184200FC0B1F2CFB0B1F2C00000000013083122D
:10185200031790008A11D1218A1573228030F0007B
:1018620080305F067002031D382C5E08003C0318AE
:10187200422C5E088316DC0083125F088316DD00AB
:10188200AF2100305F06031D482C00305E06031DA9
:101892006B2C01308316DE000130DF00AD30E0003A
:1018A2008A11A1248A150330FB008A30FC005530CE
:1018B200FD00FD0B5A2CFC0B5A2CFB0B5A2C000082
:1018C200000083125E088316DC0083125F08831611
:1018D200DD00AF2100306B06031D712C01306A065A
:1018E200031D9A2C0130031790008A11D1218A1509
:1018F20001308316DE000130DF00A030E0008A11E3
:10190200A1248A150330FB008A30FC005530FD000B
:10191200FD0B892CFC0B892CFB0B892C0000000091
:1019220001308312031790008A11D1218A15EA012E
:10193200EB01871DC22C0130031790008A11D121BF
:101942008A1501308316DE000130DF005530E000D9
:101952008A11A1248A15831207161A30FB005E3001
:10196200FC006E30FD00FD0BB42CFC0BB42CFB0B09
:10197200B42C000007120130031790008A11D12104
:061982008A15082CC32C9D
:101A3000303084003A3083120313F000C93083162B
:101A4000C6000C30C7008A11E3278A15A030840035
:101A50000D3083120313F00003308316C6000D30DF
:101A6000C7008A11E3278A156A3084000230831286
:101A70000313F000FD308316C6000730C7008A113B
:101A8000E3278A15AD3084000E3083120313F00073
:101A9000EF308316C6000730C7008A11E3278A1586
:101AA0006C308400043083120313F000143083166A
:101AB000C6000D30C7008A11E3278A15BB308400A9
:101AC000043083120313F00010308316C6000D306B
:0A1AD000C7008A11E3278A150800F9
:100FDE005034613472346B3469346E346734203477
:0C0FEE0070346C34653469346E340034A7
:040FFA00003400348B
:1019920070346C34613463346534733420346C34A1
:0A19A2006934623472346534003495
:1019AC00543445344D345034453452344134543429
:0A19BC005534523445343D340034F4
:0219C6000F34DC
:0819C80049344E34463400346A
:0419D000303400347B
:0819D4004E3461344E3400343E
:1019DC00483445344C3450342034213421342134AF
:0219EC000034C5
:0419EE000934003484
:1019F2004234693465346E34763465346E34753409
:041A02006534003413
:101A0600413475347234653476346F3469347234E3
:0A1A1600203421342134213400343F
:041A2000003400345A
:041A24000034003456
:041A28000034003452
:041A2C00003400344E
:02400E007A3BFB
:00000001FF
